:020000040800F2
:10000000604D0020910100089D430008FD35000867
:10001000E13A000869050008594E00080000000098
:10002000000000000000000000000000CD470008B4
:1000300055080008000000009F43000845490008DB
:10004000AB010008AB010008AB010008AB010008E0
:10005000AB010008AB010008AB010008AB010008D0
:10006000D1080008D7080008DD080008AB01000827
:10007000AB010008AB010008AB010008AB010008B0
:10008000AB010008AB010008AB010008AB010008A0
:10009000AB010008AB010008AB010008E308000851
:1000A000AB010008AB010008AB010008A94900083A
:1000B000B5490008C1490008AB010008AB010008C0
:1000C000AB010008AB010008AB010008AB01000860
:1000D000AB0100084D4E0008AB010008AB01000861
:1000E000AB010008AB010008AB01000800F002F80A
:1000F00000F03FF80AA090E8000C82448344AAF183
:100100000107DA4501D100F034F8AFF2090EBAE880
:100110000F0013F0010F18BFFB1A43F0010318473B
:1001200080840000A0840000103A24BF78C878C101
:10013000FAD8520724BF30C830C144BF04680C60ED
:10014000704700000023002400250026103A28BF35
:1001500078C1FBD8520728BF30C148BF0B60704739
:10016000642900F09180002070471FB51FBD10B5B5
:1001700010BD00F0A3F91146FFF7F7FF04F072FF7E
:1001800000F0C1F903B4FFF7F2FF03BC00F0C4F9BB
:100190000948804709480047FEE7FEE7FEE7FEE71B
:1001A000FEE7FEE7FEE7FEE7FEE7FEE70448054957
:1001B000054A064B70470000A7490008ED000008FB
:1001C00060470020604D0020604900206049002009
:1001D000B2F120030AD5C2F1200320FA02F001FA9D
:1001E00003F321FA02F140EA0300704721FA03F019
:1001F0004FF00001704700000FB41CB5074B06AA72
:100200007B4469460090059800F015F90020694686
:1002100000F024F91CBC5DF814FB0000590200003A
:100220002DE9F0410E460446002020622046E16898
:10023000884730B3252805D0D4E901219047206AAA
:10024000401CF2E7E168204600278847050018D0E7
:10025000A5F14100192802D820354FF40067324635
:10026000294620462760FFF77BFF40B1012804D0D4
:10027000F61D26F007060836D8E7361DD6E72846CD
:10028000DAE7206ABDE8F0812DE9F0410646002456
:1002900010687529314616A510D0AFF300800028EC
:1002A00002DA404213A507E031688A0701D512A59A
:1002B00002E0490704D511A5012401E0AFF3008055
:1002C00000210A2206F1240709E0B0FBF2FCB0FB92
:1002D000F2F302FB1C00303078541846491C002809
:1002E000F3D123462A463046BDE8F04100F045B838
:1002F000000000002D0000002B0000002000000086
:1003000002F0FF0343EA032242EA024200F0ADB8E2
:100310004FF0000200B5134694469646203922BF9E
:10032000A0E80C50A0E80C50B1F12001BFF4F7AFE9
:10033000090728BFA0E80C5048BF0CC05DF804EBCB
:10034000890028BF40F8042B08BF704748BF20F839
:10035000022B11F0804F18BF00F8012B7047704737
:100360007047704710B500F0A1F8006810BD10B5D7
:10037000044600F09BF8046010BD2DE9F0470D46DF
:1003800099469246044600F124080168880604D57F
:10039000E06921F01001216000E00120A84201DDA8
:1003A000471B00E00027A1697A1902EB0900081A2F
:1003B000A0612078C00602D42046AFF3008000265A
:1003C00008E0D4E901211AF806009047206A401C91
:1003D000761C20624E45F4DB2078C0060AD5204604
:1003E000AFF3008006E0D4E9012130209047206A75
:1003F000401C2062381EA7F10107F4DC07E0D4E9B5
:10040000012118F805009047206A401C2062281E30
:10041000A5F10105F3DC2046AFF30080207800064B
:1004200002D50220BDE8F0870120FBE701694A1CE4
:1004300002610878704700B58FB0CDE90131002125
:10044000059105497944CDE9031011466846FFF747
:10045000E7FE0FB000BD0000E5FFFFFF0A6802F8ED
:10046000010B0A6070474FF000020429C0F01280AF
:1004700010F0030C3FF44EAFCCF1040CBCF1020FB2
:1004800018BF00F8012BA8BF20F8022BA1EB0C012C
:10049000FFF740BF5FEAC17C24BF00F8012B00F8E2
:1004A000012B48BF00F8012B70470000004870473F
:1004B0000047002000487047004700207546FFF7BE
:1004C000F9FFAE4605006946534620F00700854611
:1004D00018B020B5FFF76AFEBDE820404FF00006D7
:1004E0004FF000074FF000084FF0000B21F007011C
:1004F000AC46ACE8C009ACE8C009ACE8C009ACE85F
:10050000C0098D46704710B50446AFF30080204601
:10051000BDE81040FFF736BE01491820ABBEFEE72C
:1005200026000200704700002DE9F0410646002039
:100530000C4C0546C8272065206DB0420CDA96FBAE
:10054000F7F10844206506F015FB00F01FF903F0F1
:1005500065FF012000F0E8FA6D1CC82DECDBBDE85A
:10056000F081000018000020FEE70000064800218E
:1005700041608160C160016141618161C16101626D
:1005800001214162704700001800002070B5044648
:10059000084605F0DAFD00220C4B05F04FFC024640
:1005A0000B4600200A4905F049FC06460D4609495C
:1005B000204606F001FA06F0D3F932462B4605F044
:1005C00017FE05F093FD0449086570BD004CED4031
:1005D000000014400000A0409800002006480021C0
:1005E000012241608160C0E9031241618161C16102
:1005F0000162416270470000180000202DE9F041BF
:10060000134D0F460646294606F0D6F906F096FA2F
:10061000104CE062304606F0A3F90F4E002233463C
:1006200004F0D6FC05F062FD20632946384606F04A
:10063000C3F906F083FA6063384606F091F90022A8
:10064000334604F0C5FC05F051FDA063BDE8F08120
:1006500000007A449800002000408F4006480021A6
:10066000012241608160C1600161C0E90512C16180
:100670000162416270470000180000200648002116
:10068000012241608160C1600161C0E90521C16151
:1006900001624162704700001800002006480021F6
:1006A000012241608160C160016141618161C0E9F5
:1006B00007124162704700001800002070B505461F
:1006C0000A4906F079F906F039FA094C60622846C1
:1006D00006F046F90022074B04F07AFC0022064B94
:1006E00005F0ACFB05F002FDA06270BD00007A448D
:1006F0009800002000408F40000024400648002160
:10070000012241608160C16001614161C0E906125E
:1007100001624162704700001800002010B506F029
:100720001FF90022114B05F089FB02460B46002001
:100730000F4905F083FB00220E4B05F07FFB05F00F
:10074000D5FC0D4CA06405F000FD0C4A0C4B05F0E7
:100750004FFD00220B4B05F04BFD00220A4B05F02C
:100760006DFB05F0C3FCA06710BD0000389C8C41F8
:10077000000014400040AF40180000208DEDB5A0EF
:10078000F7C6B03E882A91410000264010B506F019
:10079000E7F80022124B05F051FB02460B46002001
:1007A000104905F04BFB00220F4B05F047FB05F00D
:1007B0009DFC0E49886405F0C8FC0D4A0D4B05F000
:1007C00017FD00220C4B05F013FD00220B4B05F02A
:1007D00035FB05F08BFC05498031C86110BD000078
:1007E000389C8C41000014400040AF4018000020AD
:1007F0008DEDB5A0F7C6B03E882A91410000264095
:1008000006480121416000218160C16001614161B0
:100810008161C161016241627047000018000020DF
:1008200070B50546084906F0C7F806F087F9074C89
:100830006062284606F094F80022054B04F0C8FBDD
:1008400005F054FCA06270BD00002041980000201B
:1008500000002440704700002DE9F0410C4C0025B9
:10086000064696272065206D00280CDD96FBF7F1E3
:10087000401A206506F07EF9FFF788FF03F0CEFDF1
:10088000012000F051F96D1C962DECDBBDE8F081E4
:10089000180000202DE9F0410C4C002506463227B7
:1008A0002065206D00280CDD96FBF7F1401A2065CD
:1008B00006F060F9FFF76AFF03F0B0FD012000F0D9
:1008C00033F96D1C322DECDBBDE8F08118000020FF
:1008D000042000F0A1BA082000F09EBA102000F019
:1008E0009BBA10B5202000F097FA402000F094FA4F
:1008F000BDE81040802000F08FBA000006490020BB
:10090000C8610648016941F004010161016941F0D3
:100910004001016170470000E046002000200240D5
:10092000064A0021D16106490A6942F002020A61C1
:100930004861086940F0400008617047E0460020C7
:1009400000200240044B0022DA61044A136943F09C
:100950000103136101807047E0460020002002403F
:1009600014480022C168CB06134904D5CA6942F075
:100970000202CA611022C3685B0705D5CB6943F048
:100980000103CB6142F00402C369DB0707D0CB69E6
:1009900043F00403CB61C16921F00101C161A2F5FB
:1009A0008071013901D0C2607047C16921F0010135
:1009B000C161704700200240E046002070B5054646
:1009C00000F030FB0646114C09E0681C07D025B149
:1009D00000F028FB801BA84201D9032070BDE0680D
:1009E000C007F2D1E068800601D52020E060E06811
:1009F000C00605D4E069C00702D1E068400703D50E
:100A0000FFF7AEFF012070BD002070BD0020024046
:100A100070B586B015460E46044600F035F9311B18
:100A20000020491C890A02940090CDE9031004A912
:100A3000684600F08BF82A4600232146022000F089
:100A4000E3F800F0D7F806B070BD10B590F82110AB
:100A50000022022905D00421816380F82020012092
:100A600010BD01680B6823F00E030B6001680B6872
:100A700023F001030B6090F84030C46B012101FAB0
:100A800003F3636080F8211080F82020104610BD29
:100A900010B590F821100024022903D004218163AD
:100AA00001243DE001680A6822F00E020A60016834
:100AB0000A6822F001020A601A4A0168914201D1D3
:100AC000012121E0174A1432914201D110211BE08B
:100AD000144A2832914201D1891515E0114A3C325D
:100AE000914201D189140FE00E4A5032914202D155
:100AF0004FF4803108E00B4A6432914202D14FF446
:100B0000801101E04FF08071064A083A51600121DE
:100B100080F82110002180F82010416B01B1884736
:100B2000204610BD0800024070B5044600F07AFA75
:100B30000546601C02D004480078044400F072FAB4
:100B4000401BA042FAD370BDFC0000202DE9F04705
:100B5000054626480F460126017E01290FD00121B6
:100B6000814601762868DFF888804CF250340228EC
:100B700008D0A2462046FFF721FFA8B131E00220AD
:100B8000BDE8F0872046FFF719FF08BB0120FFF7FB
:100B9000B5FE2046FFF712FFD8F81010064621F0E8
:100BA0000401C8F810101CE04FF0FF303860AC684A
:100BB00011E02046FFF7B4FE5046FFF7FFFED8F8DD
:100BC0001010060021F00201C8F8101001D03C609E
:100BD00007E004F58064D5E9020100EB8120A04222
:100BE000E7D8002189F818103046C9E7E046002010
:100BF000002002400348016941F0800101610020AA
:100C000070470000002002402DE9F05F07461C48B5
:100C100088460024017E15461E46012909D001217F
:100C2000814601764CF2503A5046FFF7C7FE18B1A4
:100C300022E00220BDE8F09F012F02D0022F00D059
:100C40000427D346DFF83CA0220128463146FFF7AF
:100C5000BFFA81B208EB4400FFF774FE5846FFF775
:100C6000ADFEDAF8102022F00102CAF8102018B9FF
:100C7000641CE4B2BC42E7D3002289F81820D9E70B
:100C8000E046002000200240064900200A691206C2
:100C900007D5054A4A60054A4A600969090600D530
:100CA000012070470020024023016745AB89EFCD4A
:100CB0002DE9F041074600F0B5F9DFF8448101263F
:100CC000002408F18005C8F85800202F16D0102FF6
:100CD00024D0082F31D0042F40D04A4A402F4BD087
:100CE000802F19D1D8F85410401A962814D9802191
:100CF0001746104600F08CF978B376E0D8F8541017
:100D0000411A642908D9C5E90164EC602C61AC6121
:100D1000C8F85400C8E90A64BDE8F081D8F8541056
:100D2000411A6429F8D9C5E90146EC602C616C616F
:100D3000C8F85400C8E90A46EEE7D8F85410411A3A
:100D4000C829E9D96C60C5E902462C616C61AC61C7
:100D5000C8F82840C8F82C400BE036E0D8F854100A
:100D6000411AC829D8D96C60AC60C5E903466C61EA
:100D7000AC61C8F85400CFE7D8F85410401A962850
:100D8000CAD940211746104600F042F988B9AC6034
:100D90006E61EC60C8F84060C8F8386032461A49A5
:100DA0001A48C8F82840FFF733FED8F85800C8F8AA
:100DB00054004021384600F02BF90028ACD06C617B
:100DC000C8F84040C8F83840A6E76C60AE61EC60F7
:100DD000C8F83C6032460E490E48C8F82C40FFF770
:100DE00017FED8F85800C8F854008021384600F0A3
:100DF0000FF9002890D0AC61C8F83C408CE70000A7
:100E000018000020000801400FF8010810F0010848
:100E10000FF0000810E80008044910B50A68024203
:100E200002D00860FFF744FF10BD00001404014029
:100E30002DE9F84FDFF8B891002409F1040A0AF10E
:100E4000040B23460F270BF1040EC9E00125A54032
:100E50002A40AA427DD1674ED1F804C0ACEB060807
:100E6000B44532D014DCBCF1030F3AD009DCBCF13C
:100E7000000F2AD0BCF1010F1CD0BCF1020F31D100
:100E80001DE0BCF1110F17D0BCF1120F2AD119E0EF
:100E9000B8F5881F19D006DCB8F5803F15D0B8F535
:100EA000801F1FD111E0B8F5001F0ED0B8F5041F48
:100EB00018D10AE0CB6815E0CB681B1D12E0CB68A7
:100EC00008330FE0CB680C330CE08B682BB1012B9F
:100ED0004FF0080303D0456104E0042302E00561FC
:100EE00000E00023FF2A01D8064601E000F10406D5
:100EF0004FEA840501D9A5F12005D6F8008007FA4C
:100F000005FC28EA0C0803FA05F548EA0508C6F8C6
:100F100000804D68ED0062D5374DAE6946F00106A0
:100F2000AE61AD6924F0030605F001050095334D6F
:100F300006EB050CDCF80850A607360F07FA06F892
:100F400025EA0805DFF8B880404503D14FF00008D6
:100F500017E044E0DFF8AC80404502D14FF00108D3
:100F60000FE0DFF8A480404502D14FF0020808E00E
:100F7000DFF89880404502D14FF0030801E04FF0C0
:100F8000040808FA06F848EA0508CCF808804D6815
:100F9000D9F80060ED034D4601D5164300E09643B5
:100FA0002E604D68DAF80060AD03554601D5164352
:100FB00000E096432E604D68DBF80060ED025D4670
:100FC00001D5164300E096432E604D68DEF80060C0
:100FD000AD02754601D5164300E096432E60641CB1
:100FE0000D682A46E5407FF431AFBDE8F88F000078
:100FF00000040140000011100010024000000140F8
:1010000000080140000C01400010014000140140A4
:101010008068084000D0012070470AB10161704724
:101020000904FBE70148806870470000FC000020CD
:1010300070B5040025D094F83D00002520B984F84F
:101040003C50204600F004FA242084F83D0020683B
:10105000016821F0010101602068016841F400414C
:1010600001602068016821F40041016000F04CFB40
:101070004D4A6168914201D84C4900E04C49884290
:1010800001D2012070BD4B492368B0FBF1F15E68CD
:1010900026F03F060E435E606368934206D94FF424
:1010A000967359434FF47A73B1FBF3F12368491CEB
:1010B0001E6A26F03F06314319626168914210D8DA
:1010C0004900401EB0FBF1F2521CC2F30B02042A8D
:1010D00001D2042022E0B0FBF1F0401CC0F30B0071
:1010E0001CE0A268F2B301EBC10303EB0116431E3F
:1010F000B3FBF6F35B1C43F480431B0549D092B36A
:1011000001EBC10202EB0111401EB0FBF1F0401CEB
:10111000C0F30B0040F4804040F400402168CA69ED
:101120004CF6FF739A431043C861D4E9071001439A
:101130002068026822F0C00211430160D4E9030173
:1011400001432068826848F2FF339A43114381606B
:10115000D4E9050108432168CA6822F0FF02104360
:10116000C86001E00EE016E02068016841F001016E
:1011700001602564202084F83D00256384F83E50FA
:10118000002070BD01EB4106431EB3FBF6F35B1C70
:10119000B3E70120C2E701EB4101401EB0FBF1F0D3
:1011A000401CC0F30B00B7E7A086010080841E003E
:1011B00000093D0040420F002DE9FF4F81B08946F4
:1011C0000446FFF72FFF054694F83D004FF0010855
:1011D00020287DD11923012250492046009502F094
:1011E00099FA002874D194F83C00012870D00120AD
:1011F00084F83C0020680168C90703D1016841F008
:10120000010101602068016821F40061016024206F
:1012100084F83D00002626644148E0624FF0011B3F
:1012200020272068016841F4807101600095002248
:1012300059462046049B02F06DFA50B120680068C0
:10124000C00502D54FF400702064032005B0BDE84E
:10125000F08F216809F0FE000861FFF7E3FE2168C6
:10126000054648694969C0F34000C1F380214FF049
:10127000A00A0FE0FFF7D6FE411B0498814200D878
:1012800008B984F83DA0216848694969C0F3400065
:10129000C1F3802194F83D20A02A02D008B900298A
:1012A000E8D084F83D7020684169C943890716D4A5
:1012B000016841F400710160206841698069192367
:1012C000012216492046009502F024FAB8B900E040
:1012D00021E084F83D7084F83C600020B6E70168A6
:1012E00041F40071016021686FF480604861192346
:1012F00001220A492046009502F00CFA08B10120AB
:10130000A4E7039808F1010880458AD384F83D706A
:1013100084F83C60F3E7022098E700000200100028
:101320000000FFFF2DE9F84F1F4690468A4604460D
:10133000DDF82890FFF776FE054694F83D0020285A
:101340007FD11923012240492046009502F0E2F99D
:10135000002876D194F83C00012872D0012084F84E
:101360003C0020680168C90703D1016841F0010110
:1013700001602068016821F400610160212084F887
:101380003D00102084F83E0000262664C4F8248026
:101390006785608D20852D48E0622B464A46514680
:1013A000204602F043F990B92068416980690090B5
:1013B00036E02A464946204602F02BFA50B1206C0E
:1013C000042804D12068016841F400710160012003
:1013D000BDE8F88F606A216800780861606A401C87
:1013E0006062618D491E6185218D491E89B221850A
:1013F00022685369DB435B070BD451B1007810615D
:10140000606A401C6062608D401E6085208D401EB9
:1014100020852A464946204602F056F90028CED1BA
:10142000208D0028C5D154F83D0B016841F40071AE
:101430000160202004F81E09E67766770020C7E7E0
:10144000FFE70220C4E70000020010000000FFFFD9
:1014500010B586B0002100910191029103910068BE
:101460000F4988421AD10F4CA06940F00800A061D2
:10147000A069694600F008000490C0200090122086
:101480000190032003900848FFF7D2FCE06940F484
:101490000010E061E06900F40010049006B010BD97
:1014A0000054004000100240000C014002488168D6
:1014B0000278114481607047FC000020074810B595
:1014C000016841F010010160032000F075F801206F
:1014D00000F006F800F024F8002010BD00200240C3
:1014E00070B50D4D04464FF47A712878B1FBF0F0D9
:1014F0000A490968B1FBF0F000F0ECFA48B9102C89
:1015000007D200222146501E00F036F800206C6001
:1015100070BD012070BD0000FC000020080100200B
:101520000C4808B5816941F001018161816901F0D0
:1015300001010091C16941F08051C161C06900F0B1
:10154000805000900448416821F0E06141F0007152
:10155000416008BD0010024000000140002809DB86
:1015600000F01F02012191404009800000F1E020BD
:10157000C0F8001170470000F0B40E4B1B680C4619
:10158000C3F30223C3F10705042D00D90425191D57
:10159000072901D2002300E0DB1E012606FA05F12F
:1015A000491E214099409E40761E16403143F0BCB2
:1015B00003F067BC0CED00E0064900F00702086884
:1015C0004FF6FF03184040EA0220034A1043086028
:1015D000704700000CED00E00000FA052DE9F0472F
:1015E0000F46050061D0434E306800F00700B84256
:1015F00009D2306820F0070038433060306800F0CE
:101600000700B84251D128683B4C810712D54007EA
:1016100003D5606840F4E06060602878000703D577
:10162000606840F4605060606068A96820F0F00075
:10163000084360602878C00728D06868012810D067
:101640002168022810D0890700292EDA616821F06C
:10165000030101436160FFF7E5FC804641F28839F0
:101660000DE021688903EFE78901EDE7FFF7DAFC78
:10167000A0EB0801494502D90320BDE8F087606866
:10168000696800F00C00B0EB810FEFD1306800F01A
:101690000700B8420BD9306820F0070038433060AB
:1016A000306800F00700B84201D00120E5E7287853
:1016B000400705D56068E96820F4E0600843606091
:1016C0002878000706D56068296920F4605040EA50
:1016D000C100606000F038F86168084AC1F3031186
:1016E000515CC8400649086006480068FFF7F8FEEC
:1016F0000020C2E70020024000100240F2840008EF
:1017000008010020000100200448054900684968DC
:10171000044AC1F30221515CC8407047080100200F
:101720000010024002850008044805490068496825
:10173000044AC1F3C221515CC8407047080100202F
:10174000001002400285000812A185B00FC98DE883
:101750000F0014A0144A006804905168134801F067
:101760000C03042B10D0082B0ED1C1F38343C90303
:101770001DF803000AD5516804AAC1F34041515C29
:101780000A4A5043B0FBF1F005B07047084948439E
:10179000FAE7000002030405060708090A0B0C0D0E
:1017A0000E0F1010010200000010024000127A001B
:1017B00000093D002DE9F84F040070D02078C04D9D
:1017C000C00749D06868C0F38100012807D0686865
:1017D000C0F38100022809D16868C00306D52868D3
:1017E000800339D560680028E7D035E06068B0F53F
:1017F000803F0BD010B1B0F5A02F11D0286820F495
:1018000080302860286820F4802002E0286840F4B6
:1018100080302860606890B1FFF704FC06460AE05B
:10182000286840F480202860F0E700BFFFF7FAFB4B
:10183000801B642873D828688003F7D50CE0FFF775
:10184000F1FB064605E000BFFFF7ECFB801B6428B8
:10185000F0D828688003F7D420789A4E80074FF09C
:1018600001094FF0000839D5686810F00C0F07D057
:101870006868C0F38100022809D16868C00306D4F3
:101880002868800714D52069012808D110E0206954
:10189000B0B1C6F80090FFF7C5FB074605E00AE1C6
:1018A000FFF7C0FBC01B0228C4D828688007F7D503
:1018B0002868616920F0F80040EAC10028600DE066
:1018C000C6F80080FFF7AEFB074604E0FFF7AAFB6F
:1018D000C01B022823D828688007F7D42078000787
:1018E0002CD57948A169D9B1C0F80090FFF79AFBCF
:1018F000074604E0FFF796FBC01B02280FD8686A72
:101900008007F7D571484FF4FA510068B0FBF1F049
:10191000009000BF0098411E0091FAD20EE080E0D6
:10192000C0F80080FFF77EFB074604E0FFF77AFB74
:10193000C01B022875D8686A8007F7D42078400752
:1019400060D5E8690027C00008D4E86940F08050FD
:10195000E861E869012700F0805000905C48016868
:10196000C90513D40168834641F480710160FFF713
:1019700059FB824606E000BFFFF754FBA0EB0A00CC
:1019800064284ED8DBF80000C005F5D5E0680128D2
:101990000AD008B1052813D0286A20F00100286277
:1019A000286A20F0040002E0286A40F00100286262
:1019B000E06841F2883B98B1FFF734FB82460BE0C8
:1019C000286A40F004002862EEE700BFFFF72AFB18
:1019D000A0EB0A0159455AD8286A8007F6D50CE0D1
:1019E000FFF720FB824605E0FFF71CFBA0EB0A0196
:1019F00059454CD8286A8007F6D41FB1E86920F011
:101A00008050E861E06988B36968C1F38101022907
:101A100044D00228C6F8608004D0FFF703FB0446D8
:101A200038E034E0FFF7FEFA074604E0FFF7FAFA81
:101A3000C01B02282BD828688001F7D4206AB0F593
:101A4000803F05D16868A16820F4003008436860D1
:101A5000D4E908010843696821F4741108436860F7
:101A6000C6F86090FFF7DEFA044606E025E000BF06
:101A7000FFF7D8FA001B022809D828688001F7D59B
:101A80001BE000BFFFF7CEFA001B022802D903209B
:101A9000BDE8F88F28688001F4D40EE00128F7D063
:101AA0006868226A00F48031914204D1616A00F4CE
:101AB0007010884201D00120EAE70020E8E700002A
:101AC000001002400000424280044242080100200F
:101AD0000070004010B5401EB0F1807F01D301209E
:101AE00010BD4FF0E02460610F21601703F0C9F9C9
:101AF0000020A06107202061002010BD70477047C2
:101B000070B590F83C20012A26D0012480F83C4092
:101B1000022280F83D2003685A689D6822F0700612
:101B20000A6832435A600D4B02689A4208D0B2F1FB
:101B3000804F05D00A4B9A4202D00A4B9A4204D1F8
:101B4000496825F080031943916080F83D400021E9
:101B500080F83C10084670BD022070BD002C01408A
:101B6000000400400008004010B5040003D094F8C1
:101B70003D0010B107E0012010BD002084F83C00BA
:101B8000204600F01FF8022084F83D00211D206847
:101B900002F01CFF012084F8460084F83E0084F81F
:101BA0003F0084F8400084F8410084F8420084F843
:101BB000430084F8440084F8450084F83D00002088
:101BC00010BD000008B51E4A01681E4891420ED1A2
:101BD000816941F4006181618069002200F4006044
:101BE000009001211B20FFF7C7FC1B2013E0B1F17F
:101BF000804F14D0144A914220D1C16941F00201B2
:101C0000C161C069002200F00200009003211D2084
:101C1000FFF7B2FC1D20BDE80840FFF79FBCC1697B
:101C200041F00101C161C069002200F00100009093
:101C300001211C20FFF7A0FC1C20ECE708BD0000E0
:101C4000002C0140001002400004004090F83D10BC
:101C5000012901D001207047022180F83D10006861
:101C60000B49884208D0B0F1804F05D0094988421D
:101C700002D00949884204D1816801F00701062990
:101C800003D0016841F001010160002070470000AD
:101C9000002C0140000400400008004070B50446DC
:101CA00090F83C00012817D0012584F83C50022010
:101CB00084F83D002068826822F0770222F47F4297
:101CC00082600868502830D00DDC20284DD005DC1B
:101CD00098B310283BD148E0022070BD302844D092
:101CE000402834D139E0602828D0702806D0B0F5DB
:101CF000805F2CD0B0F5005F29D10AE0CB68D1E934
:101D00000121206802F0A5FE2068816841F077017A
:101D100009E0CB68D1E90121206802F09AFE206831
:101D2000816841F48041816011E0CA684968206897
:101D300002F044FF5021206807E016E0CA684968B5
:101D4000206802F04CFF6021206802F08CFE84F8CD
:101D50003D50002084F83C0070BDCA684968206886
:101D600002F02CFF40212068EFE722680146104670
:101D7000EBE7704770B50446006801694FF0000555
:101D8000C943890715D4C168C943890711D4E91E1D
:101D9000016101202077206880698007204602D0F9
:101DA000FFF7E7FF04E000F0BFF8204600F04EF92F
:101DB000257720680169C943490717D4C168C94319
:101DC000490713D46FF004010161022020772068D5
:101DD000806910F4407F204602D0FFF7CAFF04E07C
:101DE00000F0A2F8204600F031F92577206801695B
:101DF000C943090716D4C168C943090712D46FF053
:101E000008010161042020772068C069800720460E
:101E100002D0FFF7AEFF04E000F086F8204600F0A5
:101E200015F9257720680169C943C90617D4C16827
:101E3000C943C90613D46FF010010161082020774F
:101E40002068C06910F4407F204602D0FFF791FF60
:101E500004E000F069F8204600F0F8F825772068E3
:101E60000169C943C90708D1C168C943C90704D179
:101E7000891E0161204600F071F920680169C9439B
:101E8000090609D4C168C943090605D46FF0800169
:101E900001612046FFF732FE20680169C943490607
:101EA00009D4C168C943490605D46FF040010161F6
:101EB000204600F054F920680169C94389060BD413
:101EC000C168C943890607D46FF02001016120462B
:101ED000BDE87040FFF713BE70BD000000B585B0CF
:101EE0000021009101910291039100680B49884201
:101EF00011D10B48816941F008018161806969460F
:101F000000F008000490012000900220019003904E
:101F10000448FEF78DFF05B000BD0000000400403E
:101F200000100240000C0140704770B5044690F864
:101F30003C000D4601280AD0012084F83C0042B143
:101F4000042A18D0082A2AD00C2A4DD139E00220C0
:101F500070BD206802F090FD2068816941F00801A1
:101F600081612068816921F00401816120688169B3
:101F70002A69114311E0206802F0A6FD20688169FA
:101F800041F4006181612068816921F4806181618F
:101F9000206881692A6941EA0221816124E0206880
:101FA00002F0BEFD2068C16941F00801C1612068EE
:101FB000C16921F00401C1612068C1692A69114326
:101FC00011E0206802F0D8FD2068C16941F4006189
:101FD000C1612068C16921F48061C1612068C16963
:101FE0002A6941EA0221C161002084F83C0070BDE9
:101FF00010B5040003D094F83D0010B107E00120B3
:1020000010BD002084F83C00204600F01EF802209D
:1020100084F83D00211D206802F0D8FC012084F8DE
:10202000460084F83E0084F83F0084F8400084F8BD
:10203000410084F8420084F8430084F8440084F8A6
:10204000450084F83D00002010BD70477047000037
:1020500010B50446022249B104290ED0082913D034
:1020600094F84100012816D0012010BD94F83E00DC
:102070000128F9D184F83E200FE094F83F000128B0
:10208000F2D184F83F2008E094F840000128EBD119
:1020900084F8402001E084F841200122206802F009
:1020A000CBFC0F492068884203D1426C42F40042C5
:1020B00042642068884208D0B0F1804F05D00949B9
:1020C000884202D00849884204D1816801F00701A2
:1020D000062903D0016841F001010160002010BD14
:1020E000002C0140000400400008004030B50446C8
:1020F0000D460068002202F09FFC174B41F21111BF
:1021000020688A10984209D1036A0B4206D1036AFB
:10211000134203D1436C23F4004343642068036AF1
:102120000B4206D1016A114203D1016821F001017D
:10213000016001203DB1042D08D0082D09D084F89C
:102140004100002030BD84F83E00FAE784F83F00EB
:10215000F7E784F84000F4E7002C0140704770472F
:1021600070477047F8B5026804461068D168536933
:1021700010F00F0F4FF0000553D003F0010601F4EB
:10218000907737435FD0C20705D0CA0503D5226CCC
:1021900042F001022264420705D5DA0703D0226C1F
:1021A00042F002022264820705D5DA0703D0226CCE
:1021B00042F004022264020707D501F020023243F4
:1021C00003D0226C42F008022264226C002A34D030
:1021D000800604D5880602D5204602F032FD20682C
:1021E0004069216CC0F38010090700D430B3204649
:1021F00002F00FFD2068416949061BD5416921F0B5
:1022000040014161A06BA8B158494163A06BFEF742
:102210003FFC002811D0A06B416B01B0BDE8F0403D
:10222000084783060FD58B060DD52046BDE8F8403C
:1022300002F007BD2046FFF794FFF8BD2046FFF7E8
:1022400090FF2564F8BD266B2023012E52D1C606CF
:1022500050D5CE064ED510685068009050694006A3
:102260002AD5A16B086840680004000CEAD0A68D4E
:102270008642E7D9E0858869202818D0D06820F404
:102280008070D0602068416921F0010141612068BF
:10229000416921F04001416184F83E3025632068A6
:1022A000C16821F01001C160A06BFEF7CEFBA08DCC
:1022B000E18D401A81B219E0A08DE18D401A81B202
:1022C000E08D0028BED00029BCD0D06820F49070EA
:1022D000D0602068426922F00102426184F83E30F9
:1022E00025632068C26822F01002C2602046FFF712
:1022F00037FFF8BD05062BD50D0629D594F83D000E
:102300002128F6D1A068B0F5805F01D12069B0B175
:10231000206A411C2162216800784860E08C401EE0
:102320000004000CE084E4D12068C16821F0800141
:10233000C1602068C16841F04001C160F8BD206AF9
:102340000088C0F308005060206A801C2062E5E726
:102350004006F3D54806F1D5D168204621F040016A
:10236000D16084F83D3000F0ECF8F8BD034C000873
:1023700070B5040004D094F83D00002510B106E0CB
:10238000012070BD84F83C50204600F023F8242042
:1023900084F83D002068C16821F40051C1602046E6
:1023A00002F0AAFC2068016921F4904101612068D3
:1023B000416921F02A0141612068C16841F400515E
:1023C000C1602564202084F83D0084F83E00002090
:1023D00070BD000030B585B00024009401940294D3
:1023E00003940068184988422CD11848816941F447
:1023F00080418161816901F480410491816941F0EA
:10240000040181618069124D00F0040004904FF4D2
:102410000070009002200190032003906946284636
:10242000FEF706FD2815CDE900046946284602940A
:10243000FEF7FEFC002211462520FFF79DF825201F
:10244000FFF78CF805B030BD0038014000100240A5
:102450000008014090F83E30202B0ED159B152B106
:1024600090F83C30012B08D0012380F83C30002349
:10247000036302F09DBC01207047022070470000FA
:1024800002490722A1F15800FFF7E4BFA00600208F
:102490002DE9F843044690F83D001F4616460D46C8
:1024A00020284CD1C5B1BEB194F83C00012846D0DB
:1024B000012084F83C004FF00008C4F8408021203F
:1024C00084F83D00FEF7AEFDA6848146E684A06850
:1024D000B0F5805F03D004E00120BDE8F8832069F7
:1024E00028B12E465FF0000584F83C800EE00026FF
:1024F000FAE78021204602F076FCA0B9AEB116F8CA
:10250000010B21684860E08C401EE084E08C4B4663
:102510004FF0000200970028EBD14FF04001204619
:1025200002F061FC30B10320D7E735F8020BC0F3AD
:102530000800E6E7202084F83D000020CDE70220D7
:10254000CBE7704770B500210E2001F0F9FF0122A2
:10255000204921A002F000F90921002001F0F0FF3C
:1025600001221C4920A002F0F7F800244FF4FA756C
:102570001821192001F0E4FF0122214921A002F0D5
:10258000EBF82C21192001F0DBFF01221C491FA0D0
:1025900002F0E2F802F0F4F82846FEF7C5FA182136
:1025A000192001F0CDFF012215491AA002F0D4F83C
:1025B0002C21192001F0C4FF012211491CA002F0B6
:1025C000CBF802F0DDF86420FEF7AEFA641C052CAF
:1025D000CEDB70BD00000020434F46204D65617387
:1025E0007572616D656E74002D2D2D2D2D2D2D2D87
:1025F0002D2D2D2D2D2D2D2D2D2D2D2D00000000BF
:1026000008000020596F7520417265004174204810
:102610006F6D6500202020202020202020202020F9
:10262000202020202020202020202020200000000A
:10263000202020202020202020202020202020209A
:1026400020202020202020200000000010B50021A4
:102650000E2001F075FF01221A491BA002F07CF840
:102660000921002001F06CFF012216491AA002F096
:1026700073F81521002001F063FF012211491CA00D
:1026800002F06AF81F21002001F05AFF01220D49D3
:102690001CA002F061F82921002001F051FF012265
:1026A00008491DA002F058F83321002001F048FF2E
:1026B000012204491CA002F04FF8BDE8104002F0CE
:1026C0005FB8000000000020434F46204D65617355
:1026D0007572616D656E74002D2D2D2D2D2D2D2D96
:1026E0002D2D2D2D2D2D2D2D2D2D2D2D00000000CE
:1026F000436C69636B20413A205365745F486F6D8A
:1027000065000000436C69636B20423A2052756E8D
:1027100020434F4600000000436C69636B20433A3E
:10272000204261636B000000436C69636B20443A94
:1027300020434F465F5365747570000010B500214B
:10274000202001F0FDFE0122404941A002F004F8E2
:102750000B21002001F0F4FE01223C4940A001F0D1
:10276000FBFF1821002001F0EBFE0122424943A0AB
:1027700001F0F2FF4248C06F04F0FCF9FDF79EFF44
:102780001821222001F0DCFE3D483EA18030026885
:102790008038FDF731FD01223749394801F0DCFF6F
:1027A0002021542001F0CCFE0122284936A001F05E
:1027B000D3FF3421002001F0C3FE0022234933A0BF
:1027C00001F0CAFF3421072001F0BAFE01221F499F
:1027D0002FA001F0C1FF3421202001F0B1FE002222
:1027E0001A492CA001F0B8FF3421272001F0A8FEDF
:1027F0000122164928A001F0AFFF3421452001F045
:102800009FFE0022114926A001F0A6FF34214C2092
:1028100001F096FE01220D4922A001F09DFF342116
:102820005C2001F08DFE002208491FA001F094FFFA
:102830003421632001F084FE012204491BA001F031
:102840008BFFBDE8104001F09BBF0000000000209E
:10285000434F462044495354414E43450000000035
:102860002D2D2D2D2D2D2D2D2D2D2D2D2D2D2D2D98
:102870002D2D2D2D0000000008000020533D0000EC
:1028800018000020256400006D6D0000610000004C
:102890003A557000620000003A44574E00000000B4
:1028A000630000003A3C0000640000003A456E748A
:1028B0000000000070B50C460546164600211920A0
:1028C00001F03EFE0122164916A001F045FF092144
:1028D000002001F035FE0122114915A001F03CFF56
:1028E0001421002001F02CFE2A460D4916A001F00B
:1028F00033FF2021002001F023FE2246084917A0C3
:1029000001F02AFF2C21002001F01AFE3246044972
:1029100016A001F021FFBDE8704001F031BF0000BA
:1029200000000020434F462053455454494E470071
:102930002D2D2D2D2D2D2D2D2D2D2D2D2D2D2D2DC7
:102940002D2D2D2D000000004368616E676520432A
:102950004F46205370656564000000004368616E57
:1029600067652044697374616E6365005365742004
:102970005A65726F0000000010B500210E2001F0B2
:10298000DFFD0122744975A001F0E6FE0921002057
:1029900001F0D6FD0122704974A001F0DDFE18217E
:1029A000002001F0CDFD0122764977A001F0D4FE90
:1029B0001821372001F0C4FD754C76A17648E26AF3
:1029C000FDF71AFC01226F49734801F0C5FE18217A
:1029D000422001F0B5FD01226A4970A001F0BCFE61
:1029E000206B64280FDD18214D2001F0A9FD6A48F5
:1029F00068A10A30226BFDF7FFFB6748012261499D
:102A00000A3001F0A9FE206B0B38592818D2182182
:102A10004D2001F095FD01225A4961A001F09CFE74
:102A20001821582001F08CFD5B485AA10A30226B16
:102A3000FDF7E2FB5848012252490A3001F08CFEB2
:102A4000206B0A2818DA18214D2001F079FD0122A7
:102A50004C4954A001F080FE1821632001F070FD64
:102A60004D484CA10A30226BFDF7C6FB4A480122B3
:102A700044490A3001F070FE2A21002001F060FD77
:102A80000122404948A001F067FE2A21372001F0C9
:102A900057FD40A14048626BFDF7AEFB012239496A
:102AA0003D4801F059FE2A21422001F049FD012252
:102AB00034493AA001F050FEA06B64280FDD2A21B2
:102AC0004D2001F03DFD344832A10A30A26BFDF7E4
:102AD00093FB314801222B490A3001F03DFEA06BE7
:102AE0000B38592818D22A214D2001F029FD012246
:102AF00024492BA001F030FE2A21582001F020FDAE
:102B0000254824A10A30A26BFDF776FB224801225A
:102B10001C490A3001F020FEA06B0A2818DA2A218D
:102B20004D2001F00DFD012216491EA001F014FEFA
:102B30002A21632001F004FD174816A10A30A26B78
:102B4000FDF75AFB144801220E490A3001F004FE39
:102B5000BDE8104001F014BE00000020434F4620A5
:102B60004D6561737572616D656E74002D2D2D2D2F
:102B70002D2D2D2D2D2D2D2D2D2D2D2D2D2D2D2D85
:102B80000000000008000020532E463D20000000F9
:102B900098000020256400008C0600202E00000014
:102BA00030000000303000004B2E463D2000000079
:102BB00010B50021202001F0C3FC01224C494DA09A
:102BC00001F0CAFD0B21002001F0BAFC01224849A6
:102BD0004BA001F0C1FD1821002001F0B1FC012241
:102BE0004D494EA001F0B8FD4D48C06F03F0C2FF43
:102BF000FDF764FD1821222001F0A2FC484C49A1F8
:102C000080344948626AFDF7F7FA01224249464892
:102C100001F0A2FD18212E2001F092FC01223E4974
:102C200042A001F099FD1821392001F089FC3E48AD
:102C30003CA10A30A26AFDF7DFFA3B48012236497F
:102C40000A3001F089FD2021522001F079FC012297
:102C5000274937A001F080FD3421002001F070FCED
:102C60000022234934A001F077FD3421072001F030
:102C700067FC01221E4931A001F06EFD34212020A5
:102C800001F05EFC00221A492DA001F065FD3421FF
:102C9000272001F055FC012215492AA001F05CFD16
:102CA0003421452001F04CFC0022114927A001F0FD
:102CB00053FD34214C2001F043FC01220C4924A097
:102CC00001F04AFD34215C2001F03AFC0022084961
:102CD00020A001F041FD3421632001F031FC0122EC
:102CE00003491DA001F038FDBDE8104001F048BDCA
:102CF00000000020434F462053504545440000004B
:102D00002D2D2D2D2D2D2D2D2D2D2D2D2D2D2D2DF3
:102D10002D2D2D2D0000000008000020563D000044
:102D200018000020256400008C0600202E00000002
:102D30006D2F6D696E000000610000003A55700053
:102D4000620000003A44574E00000000630000009B
:102D50003A3C0000640000003A456E740000000038
:102D600010B50021272001F0EBFB01221A491BA01E
:102D700001F0F2FC0921002001F0E2FB01221649DA
:102D800018A001F0E9FC1521002001F0D9FB012277
:102D900011491AA001F0E0FC1F21002001F0D0FB36
:102DA00001220D491AA001F0D7FC2921002001F0D1
:102DB000C7FB012208491BA001F0CEFC33210020F3
:102DC00001F0BEFB012204491BA001F0C5FCBDE8D7
:102DD000104001F0D5BC000000000020434F4154DA
:102DE000494E47002D2D2D2D2D2D2D2D2D2D2D2DE9
:102DF0002D2D2D2D2D2D2D2D00000000436C6963F0
:102E00006B20413A2052756E204657440000000066
:102E1000436C69636B20423A2052756E20425744DE
:102E200000000000436C69636B20433A2053746FC9
:102E3000702F4261636B0000436C69636B20443AFE
:102E4000204F70656E204D656E75000010B5002135
:102E50000E2001F075FB0122114912A001F07CFC4B
:102E60000921002001F06CFB01220D4911A001F0A5
:102E700073FC1821192001F063FB0122134914A0EF
:102E800001F06AFC2C21192001F05AFB01220F49A4
:102E900011A001F061FCBDE8104001F071BC000020
:102EA00000000020434F46204D6561737572616DCF
:102EB000656E74002D2D2D2D2D2D2D2D2D2D2D2DAF
:102EC0002D2D2D2D2D2D2D2D000000000800002072
:102ED00053455454494E4700484F4D452E2E2E0021
:102EE00070B50C4605460021122001F029FB012295
:102EF000354936A001F030FC0921002001F020FB0B
:102F00000122314935A001F027FC1421002001F0F5
:102F100017FB2A462C4937A001F01EFC2021002077
:102F200001F00EFB2246284937A001F015FC3421A0
:102F3000002001F005FB0022234938A001F00CFC21
:102F40003421072001F0FCFA01221F4934A001F0CE
:102F500003FC3421202001F0F3FA00221A4931A0A9
:102F600001F0FAFB3421272001F0EAFA0122164988
:102F70002DA001F0F1FB3421452001F0E1FA0022FF
:102F800011492BA001F0E8FB34214C2001F0D8FAC4
:102F900001220D4927A001F0DFFB34215C2001F064
:102FA000CFFA0022084924A001F0D6FB3421632087
:102FB00001F0C6FA0122044920A001F0CDFBBDE8D2
:102FC000704001F0DDBB000000000020434F415481
:102FD000494E47202D20434F460000002D2D2D2D1A
:102FE0002D2D2D2D2D2D2D2D2D2D2D2D2D2D2D2D11
:102FF00000000000436F6174696E672046756E6360
:1030000074696F6E00000000434F46204D65617388
:10301000756172616D656E740000000061000000F2
:103020003A557000620000003A44574E000000001C
:10303000630000003A3C0000640000003A456E74F2
:103040000000000070B500210E2001F079FA012285
:10305000204921A001F080FB0921002001F070FA35
:1030600001221C4920A001F077FB00244FF4FA75DF
:103070001821192001F064FA0122214921A001F050
:103080006BFB2C21242001F05BFA01221C491FA0BC
:1030900001F062FB01F074FB2846FDF745FD1821A5
:1030A000192001F04DFA012215491AA001F054FB34
:1030B0002C21242001F044FA012211491CA001F026
:1030C0004BFB01F05DFB6420FDF72EFD641C052C1D
:1030D000CEDB70BD00000020434F46204D6561737C
:1030E0007572616D656E74002D2D2D2D2D2D2D2D7C
:1030F0002D2D2D2D2D2D2D2D2D2D2D2D00000000B4
:1031000008000020536574484F4D450046697273AE
:1031100074000000202020202020202020202020BB
:1031200020202020202020202020202020000000FF
:10313000202020202020202020202020202020208F
:1031400020202020202020200000000010B5002199
:10315000192001F0F5F901221A491BA001F0FCFA2F
:103160000921002001F0ECF90122164919A001F013
:10317000F3FA14210F2001F0E3F9012211491BA0F9
:1031800001F0EAFA20210F2001F0DAF901220D49BD
:103190001AA001F0E1FA34215D2001F0D1F90122F9
:1031A00008491AA001F0D8FA3421002001F0C8F92A
:1031B0000122044917A001F0CFFABDE8104001F048
:1031C000DFBA000000000020534554205A45524FFA
:1031D000000000002D2D2D2D2D2D2D2D2D2D2D2DD3
:1031E0002D2D2D2D2D2D2D2D000000004D616B65F9
:1031F00020737572652070756C6C00004361626CA1
:1032000065206973206C6F6F73650000443A5965DF
:1032100073000000433A4261636B000010B5002167
:103220000A2001F08DF901224A494BA001F094FADD
:103230000B21002001F084F9012246494BA001F046
:103240008BFA1821002001F07BF901224D494EA094
:1032500001F082FA4D4C206AFDF7E2FA1821222093
:1032600001F06EF94AA14B48626AFCF7C5FF0122E2
:103270004449484801F070FA18212E2001F060F905
:103280000122404944A001F067FA1821392001F0D9
:1032900057F940483EA10A30A26AFCF7ADFF3D480D
:1032A000012238490A3001F057FA18214F2001F065
:1032B00047F90122334939A001F04EFA34210020A8
:1032C00001F03EF90022234936A001F045FA3421ED
:1032D000072001F035F901221E4933A001F03CFA24
:1032E0003421202001F02CF900221A492FA001F0EE
:1032F00033FA3421272001F023F9012215492CA0AB
:1033000001F02AFA3421452001F01AF9002211496E
:1033100029A001F021FA34214C2001F011F90122F9
:103320000C4926A001F018FA34215C2001F008F9BC
:103330000022084922A001F00FFA3421632001F095
:10334000FFF8012203491FA001F006FABDE8104072
:1033500001F016BA00000020535045454420414476
:103360004A5553544D454E54000000002D2D2D2D2F
:103370002D2D2D2D2D2D2D2D2D2D2D2D2D2D2D2D7D
:103380000000000008000020563D000098000020CA
:10339000256400008C0600202E0000006D2F6D6952
:1033A0006E000000610000003A55700062000000ED
:1033B0003A44574E00000000630000003A3C000011
:1033C000640000003A456E740000000010B5002152
:1033D000162001F0B5F80122634964A001F0BCF9A0
:1033E0000921002001F0ACF801225F4963A001F03F
:1033F000B3F914211D2001F0A3F801225A4965A058
:1034000001F0AAF901F0BCF94FF47A70FDF78CFBDA
:1034100014211D2001F094F80122534960A001F00D
:103420009BF901F0ADF94FF4FA742046FDF77CFBEF
:1034300020211D2001F084F801224B494EA001F00B
:103440008BF901F09DF92046FDF76EFB20211D2030
:1034500001F076F80122444954A001F07DF901F011
:103460008FF92046FDF760FB20211D2001F068F850
:1034700001223D494EA001F06FF901F081F920468B
:10348000FDF752FB20211D2001F05AF80122364998
:1034900048A001F061F901F073F92046FDF744FB03
:1034A00020211D2001F04CF801222F4942A001F0FB
:1034B00053F901F065F92046FDF736FB20211D2068
:1034C00001F03EF8012228493DA001F045F901F044
:1034D00057F92046FDF728FB20211D2001F030F888
:1034E0000122214938A001F037F901F049F92046BD
:1034F000FDF71AFB20211D2001F022F801221A49B4
:1035000033A001F029F901F03BF92046FDF70CFB4F
:1035100020211D2001F014F8012213492EA001F0F2
:103520001BF901F02DF92046FDF7FEFA20211D20A0
:1035300001F006F801220C492AA001F00DF901F072
:103540001FF92046FDF7F0FA20211D2000F0F8FFBA
:103550000122054926A001F0FFF801F011F92046EB
:10356000BDE81040FDF7E0BA000000204E4F54497E
:103570004649434154494F4E000000002D2D2D2D4A
:103580002D2D2D2D2D2D2D2D2D2D2D2D2D2D2D2D6B
:10359000000000005375636365737366756C00000B
:1035A00052657374617274696E6700002E000000CA
:1035B0002E2E00002E2E2E002E2E2E2E000000006D
:1035C0002E2E2E2E2E0000002E2E2E2E2E2E000001
:1035D0002E2E2E2E2E2E2E002E2E2E2E2E2E2E2E39
:1035E000000000002E2E2E2E2E2E2E2E2E0000003D
:1035F0002E2E2E2E2E2E2E2E2E2E0000FEE70168B1
:103600004A69D24352050FD46FF480624A610021A7
:1036100040F8301F202242738173026942F0040295
:10362000026101730120704700207047F8B504461D
:10363000C06A1E460D461746082807D0012805D047
:1036400010F5803F02D0206B122804D12068016859
:1036500041F480710160134600224FF001112046B1
:10366000009600F057F840B120680068C00502D508
:103670004FF4007020640320F8BD2069B0F5804F3E
:103680000ED00620216800EAD51040F0F000086155
:1036900033463A460B49204600F070F878B902E00C
:1036A00005F0FE0000E0E8B22168086105493346F4
:1036B0003A46891F204600F061F80028DCD001203E
:1036C000F8BD00000800010070B516460D4604461E
:1036D0000DE02046FFF793FF08B1012070BD681C84
:1036E00005D0FDF79FFC801BA84207D835B12068A4
:1036F0004069C0434007ECD4002070BD002044F86E
:10370000300F20216173A073216941F020012161F4
:103710002073E2E72DE9F0471E4690460D46044629
:10372000C1F30747DDF8209008E0701C06D0FDF7D4
:1037300079FCA0EB0900B0420FD876B12068012FC8
:1037400018D0806925EA00000004000C14D0002184
:103750004145EAD00020BDE8F087002044F8300F52
:1037600020216173A073216941F020012161207340
:103770000120F0E74069E5E70121E9E72DE9F0479D
:103780009A4691460E46044600254FF02008C1F3A4
:10379000074725E020684069C043400514D42068ED
:1037A000016841F40071016021686FF48060486134
:1037B000256384F83D8084F83E50206C40F004007E
:1037C000206484F83C501FE0B9F1FF3F08D0FDF7BA
:1037D00029FCA0EB0A0149450CD8B9F1000F09D02A
:1037E0002068012F13D0806926EA00000004000C35
:1037F0000BD0CFE744F8305F84F80D80A5732069C3
:1038000040F02000206125730120BDE8F087406969
:10381000EAE770B516460D4604460DE02046FFF770
:10382000EEFE08B1012070BD681C05D0FDF7FAFB63
:10383000801BA84207D835B120684069C043000604
:10384000ECD4002070BD002044F8300F20216173BB
:10385000A073216941F0200121612073E2E700009B
:10386000F0B585B000243848009401940294039484
:10387000816941F010018161816901F010010491B9
:10388000816941F020018161816901F02001049189
:10389000816941F004018161816901F004010491B1
:1038A000816941F0080181618069284E00F00800BB
:1038B0004FF4C0450490002229463046FDF7ADFB89
:1038C000234F002202213846FDF7A7FB0320CDE954
:1038D000024000950125694601953046FDF7A8FA9A
:1038E000FC2000901B48CDE9010569461A48FDF708
:1038F0009FFA0220CDE90005CDE90240694638462D
:10390000FDF796FA002202210820FDF735FE082077
:10391000FDF724FE002202210920FDF72DFE0920DB
:10392000FDF71CFE002202210A20FDF725FE0A20D9
:10393000FDF714FE002202211720FDF71DFE1720BF
:10394000FDF70CFE05B0F0BD001002400010014074
:10395000000C0140000021100008014010B586B0A5
:103960000024184800940194029403940494144988
:10397000059401604721C0E901144FF6FE71C0E9CA
:1039800003148021C0E90541FEF7EEF808B172B6D4
:10399000FEE74FF48050009069460A48FEF77EF932
:1039A00008B172B6FEE7049404A906480594FEF730
:1039B000A7F8002801D072B6FEE706B010BD0000DF
:1039C000002C01407005002010B586B00024174877
:1039D000009401940294039404944FF08041059460
:1039E00001604FF47A71C0E901144FF4E141C0E97C
:1039F000031480218161FEF7B7F808B172B6FEE7C3
:103A00004FF48050009069460848FEF747F908B126
:103A100072B6FEE7049404A904480594FEF770F812
:103A2000002801D072B6FEE706B010BDB805002030
:103A300010B58EB000240794089409940A940B944E
:103A40001C2168460C94FCF763FC1E481C4901606D
:103A50000A21C0E901144821C0E9031480218161D1
:103A6000FEF782F808B172B6FEE74FF48050079077
:103A700007A91448FEF712F908B172B6FEE711481B
:103A8000FEF7B6FA08B172B6FEE70B940BA90D4823
:103A90000C94FEF735F808B172B6FEE76020CDE968
:103AA000000402940822694606480494FEF73DFA91
:103AB00008B172B6FEE70348FEF710FA0EB010BD6B
:103AC0000004004000060020044800210122C0E953
:103AD0000112C160016141618161704718000020DD
:103AE000FEE700002DE9F84FFD4E01250024B068E7
:103AF00006F18009C0B3FFF7E7FFC820FDF714F80F
:103B00002FE0D9F80410484659B1716B31B1012149
:103B10000020FFF7E5F9C6E90C5420E0316B0029DD
:103B2000F5D1816859B1716B31B100210120FFF7E6
:103B3000D7F9C6E90C4512E0316B0029F5D1D9F867
:103B4000100070B1306B20B100F08AFCFCF758FE19
:103B500005E0706B28B100F083FCFCF73FFD02F03C
:103B60001DF8B0680028CCD1706800287AD000F029
:103B700017FCFFF7F5F86420FCF7D6FFC5E0D9F88D
:103B800010004F4610B1706C012804D07868A8B3BB
:103B9000706C28B107E000F063FC00F0C3FE83E026
:103BA000306DFCF759FE01220221CE48FDF735FAAF
:103BB000C6E90A547C60BC60FC603C61BC61F06C8E
:103BC000FCF7B2FCF06C02F0D5FFFCF7DFFDDFF88C
:103BD0001883DFF818A30DE000F020FC746422467F
:103BE00041465046B466FCF713FF3220FCF79CFFB9
:103BF000F463BC61B06A002858D0EDE7FFE7B8680D
:103C000088B3706C10B9306DFCF726FE00220221DB
:103C1000B448FDF702FAC6E90A457C60BC60FC6066
:103C20003C617C61F06CFCF77FFCF06C02F0A2FF61
:103C3000FCF7ACFDDFF8B082DFF8B0A20FE000BF08
:103C400000F0ECFB7464224641465046B466FCF733
:103C5000DFFE6420FCF768FF3464B4637C61F06AC3
:103C600020B3EDE755E0FFE7F86800B3706C68B18A
:103C700000F0F6FB01210020FFF732F935633464D0
:103C8000B06B00B13564FFF71FFF0DE0F06CFCF77F
:103C9000E3FDB4627564F4627C61BC6100F080FB9A
:103CA00008219348FEF722FA01F078FF2DE07869A9
:103CB000A0B1306DFCF7EEFDB563BC60FC603C610B
:103CC000BC61756407E008218948FEF70FFA3220CD
:103CD000B46201F071F97869B8B1F4E7B869A0B1DC
:103CE000306DFCF7D7FDF5637C60FC603C617C6166
:103CF000756407E008217E48FEF7F8F93220F46287
:103D000001F05AF9B8690028F4D1706800287FF4EE
:103D100036AFF068A0B3FFF781FA6420FCF704FF28
:103D20004FF06408DFF8CCA1DFF8CCB131E0D9F86E
:103D30000C004F4628B100F093FBFCF761FD01F049
:103D40002DFF7868A0B1F06CB0F57A6F01DA6430BD
:103D500014E090FBF8F002F00DFF3862FCF760FD14
:103D600051465846F26CFCF753FEFFF757FA0EE047
:103D7000B86830B1F06CC828EBDB6438F064E8E771
:103D80000AE0386928B100F06BFBFCF739FD01F05F
:103D900005FFF0680028CAD13069B246002877D004
:103DA00000F05EFBFEF752FC6420FCF7BDFE7EE1F6
:103DB000D9F804004E4628B300F052FBDFF8248106
:103DC000DFF824B157461AE0B86E10B1FEF7BAFB1F
:103DD0000FE0FFF73BF8012202214046FDF71DF9F5
:103DE00000F03AFD59464148BA6EFCF711FE00F06A
:103DF00037FBFCF7F3FBFEF729FC01F0CFFE706800
:103E00000028E1D1B068B146002868D000F028FB56
:103E1000DAF868005146D0B3354E00204FF47A628C
:103E200016F1D00646F82040401C9042FADDA0462C
:103E30000F468C6642462C492C48FCF7E9FDC7F832
:103E40004080C7F86480C9F840802C49C9F8448094
:103E5000C9F83C8001F1C807C1F80080C7F80080AC
:103E6000C9F84880C9F84C80C9F85880012202215D
:103E70001C48C9F85480FDF7D0F800F0BBFA1C4983
:103E80000722A031A1F15800FEF7E4FA92E000E029
:103E900012E1FFF7D7F8FCF7A1FBFEF7D7FBE1E053
:103EA000D9F80C0000B13D6400F092FC0220FCF750
:103EB0003BFE0F48C9F84C80A030BA46B0F803006A
:103EC000002241BAF965786E46F820100B49D9F8FE
:103ED0004830376801F1C80B41F823701BE0C5E09A
:103EE00018000020000C014010E8000812E0000853
:103EF00000060020FFFF010810F8010850450020CF
:103F000051F823C056F82270BC4503DA41F82370FB
:103F10004BF82320521C8242F2DBDBF80030DAF847
:103F2000602013449B46424604E000BF56F82370CD
:103F30005B1C3A4407468342F8DBA7EB0B0092FB7D
:103F4000F0F0C9F84C208346C9F83C00FE480068F0
:103F500000EB80004100C82091FBF0F002F00AFE67
:103F60000746C9F840000BEB8B004100C82091FBCD
:103F7000F0F002F0FFFD0146C9F844003846FCF7B6
:103F80003DFBF149D9F84800C83151F82020DAF852
:103F900064108A1A142A08D1EB4A52F82020B2F58C
:103FA000FA7F02DD401CC9F84800491CCAF86410B9
:103FB000FEF7E2FCDAF84000574600283FF470AF05
:103FC000E1483A6EC83001688F181AE056F8271099
:103FD000D9F83C00081A02F0B8F800224FF08043EC
:103FE00001F0F0F883460091D9F8580002F0B8FCCF
:103FF0005A46009B01F066FE01F032FE7F1CC9F8B4
:104000005800DAF86400401E8742DFDBCE48DAF859
:104010006010C830564600680844DAF86410081A80
:10402000401E02F0A7FD01464F46D9F8580002F0A5
:10403000C3FC02F095FC01F0BBFD0022C34B01F074
:10404000FDFE01F00DFE7865B06B08B1356401E04E
:10405000C6F840800821BE48FEF748F800F000FA94
:10406000FCF70CFB01F09AFD01F098FDD9F80C006B
:104070004E4658B100F0F4F900210120FEF730FF60
:10408000CAF83450FFF720FD01F088FD306970B1A7
:1040900000F0E6F9FCF7E2FA012211460020FEF7F3
:1040A00009FCCAE91B54CAF8744001F077FDDAF83C
:1040B000100000287FF47CAEDAF81400564658B1A0
:1040C000FEF75AFCD9E90301084305D000F0C8F90E
:1040D000FCF784FA01F062FDB069E8B3FCF7BEFAC0
:1040E000D9F804004F4658B1F06E48B1C6E91B54E8
:1040F0000122114600207467FEF7DCFB01F04EFD43
:10410000B86858B1F06E48B1C6E91B4501220021DC
:1041100010467467FEF7CEFB01F040FD786858B199
:10412000306F48B1C6E91B54012211460020746764
:10413000FEF7C0FB01F032FDB86858B1306F48B1EE
:104140000121F46600220846C6E91C45FEF7B2FBD1
:1041500001F024FD786800E046E058B1706F48B186
:10416000C6E91B450122002110467467FEF7A2FB39
:1041700001F014FDB86858B1706F48B10121F466C0
:1041800000220846C6E91C45FEF794FB01F006FD37
:10419000F86828B100F064F9FCF720FA01F0FEFCA1
:1041A000386908B3F06E48B100F05AF9FEF700FD27
:1041B000FCF774FA01F0F2FC3869A8B1306F48B12D
:1041C00000F04EF9FEF7BAFAFCF7D0F901F0E6FC80
:1041D000386948B1706F38B100F042F9FEF7B6FFA8
:1041E000FCF78CFA01F0DAFCF06960B3FCF786FAB0
:1041F000D9F80C004F4668B100F032F9FCF72EFAFE
:10420000012100220846FEF755FBF466C6E91C456D
:1042100001F0C4FC3869B0B100F0FAFA00F020F9FE
:10422000FFF7D4F84FF4FA70FCF77EFCBFF34F8F22
:1042300048480168484A01F4E06111430160BFF356
:104240004F8F00BFFDE7306AF0B3FCF727FAF06F3D
:1042500002F090FCFCF762FAF06F02F08BFCFCF7C6
:10426000DFFAFEF7A5FCD9F804004F4680B1F06FE5
:10427000C8280DDA3230F067386AFCF74FFAF06F71
:1042800002F078FCFCF7CCFAFEF792FC01F086FC19
:10429000B86880B1F06F64280DDD3238F067386A95
:1042A000FCF73CFAF06F02F065FCFCF7B9FAFEF798
:1042B0007FFC01F073FCF86878B100F0D1F8FCF7EE
:1042C000CDF90122114600E017E00020FEF7F2FAD6
:1042D000C6E91B54746701F061FC386968B100F0ED
:1042E000BFF8FCF7BBF9012211460020FEF7E2FA05
:1042F000C6E91B54746701F051FC706A00284BD06A
:10430000FCF734F94F46D9F8000002F033FCF16FA6
:10431000FCF73CF9FEF712FA786870B13868C828E3
:104320000BDA0A303860B46602F024FCF16FFCF757
:104330002DF9FEF703FA01F031FCB868C8B138680E
:10434000822816DD0A3809E0504500200000594057
:10435000000600200CED00E00400FA053860B466A9
:1043600002F008FCF16FFCF711F9FEF7E7F901F034
:1043700015FCF86800280FD000F072F8FCF76EF911
:10438000012200211046FEF795FAC6E91B45746725
:10439000BDE8F84F01F002BCBDE8F88FFEE77047BA
:1043A0002DE9F0410E4C0F490F4BA26B012704F190
:1043B000800012B1476118460EE00C4D0C4EE26BC6
:1043C0000AB1876106E00022426182611846FCF76B
:1043D0001FFBE26B29463046BDE8F041FCF718BBF5
:1043E000180000200FF8010810F001080FF0000875
:1043F00010E800080748806F00EBD0714A100649AA
:104400000B68DA630A68D062C86008210248FDF7C9
:104410001FBE000018000020000600200748C069E9
:1044200000EBD0714A1006490B68DA630A68D06263
:10443000C86008210248FDF70BBE0000980000206C
:1044400000060020054851210268D1630268A221BC
:10445000D162C1600821FDF7FBBD0000000600200D
:1044600010B5002000F060F8BDE8104000F088B9F9
:104470002DE9FF4F83468946D81DC11700EB5170C7
:1044800000271D464FEAE00A3E46DDF8348024E06E
:1044900000241AE0600702D07806070E08E0E01753
:1044A00004EB5071029800EBE10106FB0A1007785B
:1044B000380608D50E981FFA89F1C2B20BEB04003A
:1044C00080B200F00FF8641C24B2AC42E2DB761C30
:1044D00009F1010036B20FFA80F94645D8DBBDE894
:1044E000FF8F000070B5822815D2402913D20C4BE3
:1044F000012401F00705AC401E79C908094B01EB06
:10450000811100EB41000EB132B101E0012A03D06C
:10451000195CA143195470BD195C2143FAE70000EE
:10452000100000200C01002028B1FF224FF482610E
:104530000248FBF7E5BE0022F8E700000C0100206E
:1045400000B90120014A10805180704710000020FE
:1045500010B501F053FB44F6206301227821544842
:10456000FCF72AFE08B1002010BD40F6C210401E24
:10457000FDD1AE220021782001F046FB202200214F
:10458000782001F041FB10220021782001F03CFB53
:10459000B0220021782001F037FBC82200217820CA
:1045A00001F032FB00221146782001F02DFB102291
:1045B0000021782001F028FB40220021782001F022
:1045C00023FB81220021782001F01EFBFF22002125
:1045D000782001F019FBA1220021782001F014FBC2
:1045E000A6220021782001F00FFBA82200217820CC
:1045F00001F00AFB3F220021782001F005FBA422F4
:104600000021782001F000FBD3220021782001F066
:10461000FBFA00221146782001F0F6FAD52200219B
:10462000782001F0F1FAF0220021782001F0ECFA74
:10463000D9220021782001F0E7FA222200217820F7
:1046400001F0E2FADA220021782001F0DDFA1222EC
:104650000021782001F0D8FADB220021782001F037
:10466000D3FA20220021782001F0CEFA8D220021F9
:10467000782001F0C9FA14220021782001F0C4FA50
:10468000AF220021782001F0BFFA2E2200217820ED
:1046900001F0BAFA0020FFF747FF00F071F8054873
:1046A00000210180418001214171084610BD0000B8
:1046B0001C050020100000202DE9F0478146254808
:1046C0000D46924601882A781144822905D28046F7
:1046D000408869780844402802D30020BDE8F0876C
:1046E00000262AE0A9F1200101FB00606A6800248D
:1046F00032F810701DE000BF07FA04F0000409D57D
:10470000B8F80210B8F800003144204489B280B2F1
:1047100052460BE0BAF1000F1AD00022B8F802108E
:10472000B8F800003144204489B280B2FFF7DAFEC5
:10473000641C2878A042DFD8761C6878B042D1D8B3
:10474000B8F800102A7848461144A8F80010C5E7C8
:104750000122E3E71000002070B515460E4604461E
:1047600009E02A463146FFF7A7FF2178884201D0A9
:10477000C8B270BD641C20780028F2D1C0B270BDF0
:1047800070B5114D002400BF04F1B000C2B2002189
:10479000782001F039FA00221146782001F034FA2D
:1047A00010220021782001F02FFA04EB841005EB91
:1047B000400282234021782001F036FA641CE4B2E2
:1047C000082CE1D370BD00000C01002070470000F0
:1047D00010B50D4C01200321207061700021A170E3
:1047E0000A22E270217160710621204600F0CEFBA2
:1047F000A071000AE0712146BDE810404FF47A73C1
:1048000008220248FDF744BEF400002048060020BC
:1048100010B5104C01211020217060700020A07094
:104820000522E270207161710221A171E0716420A2
:1048300020720921204600F0A9FB6072000AA072D4
:104840002146BDE810404FF47A730B22A1F17800A5
:10485000FDF71EBEC00600202DE9F047DFF8B0903E
:10486000012202214846FCF7D8FB2A4C012640F6DB
:10487000B837206C04F1800558B93846FBF754FE70
:1048800004E0E86800B12664FFF7DCFD206C002836
:10489000F7D0206DFBF7FEFF08211F48FDF726FC2F
:1048A0004FF4C870FCF740F9286802F063F9B84685
:1048B0003946FBF76BFEE868002738B12764E763E9
:1048C000BDE8F04708211448FDF710BC0022022182
:1048D0004846FCF7A2FB4046FBF726FEFFF7B2FD79
:1048E0006F61A763E7633A460C490D482764FCF7FC
:1048F0008FF8286D9638FCF717F9206DFBF7ACFFA1
:1049000008210548FDF7F2FBA666BDE8F087000028
:10491000000C014018000020000600200FF80108DC
:1049200010F001080648002101224160C0E902128E
:10493000016141618161C1610162416270470000B2
:1049400018000020FCF7B2BD30B58FB028216846B2
:10495000FBF7DEFC14210AA8FBF7DAFC01210804AE
:10496000CDE900100024029402250491CDE90750FE
:104970004FF4E01009906846FCF71CFF08B172B6CE
:10498000FEE70F20CDE90A054FF48060CDE90C4029
:1049900002210AA80E94FCF721FE002801D072B66D
:1049A000FEE70FB030BD70470148FDF7E3B90000E6
:1049B000700500200148FDF7DDB90000B8050020B2
:1049C0000148FDF7D7B9000000060020F0B50268E5
:1049D000164B174C174D4FF08047984205D0B84200
:1049E00003D0A04201D0A84203D122F070064A6849
:1049F0003243984205D0B84203D0A04201D0A84229
:104A000003D122F44074CA6822434C6922F0800228
:104A1000224302608A68C2620A688262984201D1B7
:104A20000969016301214161F0BD0000002C0140D2
:104A3000000400400008004010B501F01F030121F0
:104A4000046A99408C430462016A9A4011430162EE
:104A500010BD10B5846842EA032224F47F440A435F
:104A60002243826010BD826822F070020A4342F045
:104A7000070181607047000030B5026A22F0010230
:104A80000262026A4368846924F073050C682C434F
:104A900022F002058A682A430A4DA8420BD122F06F
:104AA0000805CA6823F440732A434D6922F00402C2
:104AB0001D438B692B4343608461496841630262F3
:104AC00030BD0000002C014030B5026A22F0100217
:104AD0000262026A436884690D6824F4E64444EA89
:104AE00005248D6822F0200242EA05120B4DA842EF
:104AF0000ED1CD6822F0800242EA05124D6923F4FE
:104B0000406343EA85038D6922F0400243EA85034E
:104B10004360846149688163026230BD002C0140BA
:104B200030B5026A22F480720262036A4268C46984
:104B300023F4007324F073050C682C438D6843EA5A
:104B400005230C4DA8420ED1CD6823F4006343EA3F
:104B500005234D6922F4405242EA05128D6923F47F
:104B6000806342EA05124260C4614968C16303621E
:104B700030BD0000002C014030B5026A22F48052A2
:104B80000262046A4268C3690D6823F4E64343EA9B
:104B900005238D6824F4005444EA0534064DA842E8
:104BA00004D14D6922F4804242EA85124260C36119
:104BB00049680164046230BD002C014010B5036AED
:104BC000046A24F001040462846924F0F00444EAD5
:104BD000021423F00A020A438461026210BD10B578
:104BE000036A23F0100303628369046A23F47043A9
:104BF00043EA023224F0A00343EA01118261016218
:104C000010BD10B5406A0021C185C184FDF7A9FA25
:104C100010BD0168CA6822F49072CA6001684A69CE
:104C200022F001024A61016B012904D10168CA68BE
:104C300022F01002CA60202180F83E10002101639A
:104C4000704708B590F83E10222901D0022008BD17
:104C500082684FF480539A4201D1016921B1816A7F
:104C60009A421BD04AB10AE00268816A5268C2F3D4
:104C700008020A80816A891C08E0026972B1026830
:104C8000526802F07F020A70816A491C8162C18DFC
:104C9000491E0904090CC18503D019E00268526855
:104CA000F1E70168CA6822F02002CA600168CA6898
:104CB00022F48072CA6001684A6922F001024A61E6
:104CC000202180F83E10016B012903D0FDF7D8FBAD
:104CD000002008BD002101630168CA6822F01002AB
:104CE000CA6001680A68D20602D50A68496800915C
:104CF000818DFDF735FAEBE770B504460068016970
:104D0000E26821F44051114301612169A068084320
:104D1000616908432168CA6841F20C639A430243FF
:104D2000CA6020684169A26921F440711143416160
:104D30001E492068884202D1FCF7F6FC01E0FCF72E
:104D4000E3FC00EBC00101EB00126068642180000D
:104D5000B2FBF0F3B3FBF1F36FF018067343B2FB51
:104D6000F0F5B2FBF0F605EB8305322303EB0515F6
:104D7000B5FBF1F5B6FBF1F605F0F00505EB061510
:104D8000B2FBF0F6B2FBF0F0B0FBF1F06FF01802FE
:104D9000504306EB800003EB0010B0FBF1F02168FC
:104DA00000F00F002844886070BD0000003801400A
:104DB00081628285C28500210164222280F83E2022
:104DC00080F83C100168CA6842F48072CA600168C9
:104DD0004A6942F001024A610068C16841F020015D
:104DE000C160002070472DE9F041984617460E46F5
:104DF0000446069D1DE0681C1BD02DB1FCF712F97E
:104E0000A0EB0800A84214D92068C16821F4D07131
:104E1000C1602068416921F001014161202084F8CE
:104E20003D0084F83E00002084F83C000320BDE8EB
:104E3000F0812068006836EA000004D00020B84203
:104E4000D9D00020F3E70120F9E700000148FDF781
:104E500089B9000048060020FEE7490050EAC12059
:104E600018BF04204A0D18BF40F0010040F2FF7245
:104E7000B2EB515F08BF40F00200012808BF0520D7
:104E800070470907090E002804DB00F1E02080F8D4
:104E90000014704700F00F0000F1E02080F8141DAE
:104EA00070472DE9F0414F1E00EBC7010446D1E9E0
:104EB000000115461E4637F006020DD02A4633463D
:104EC00001F096F97F1E04EBC703D3E9002300F03D
:104ED000F9FE37F00602F1D1022F25D0042F13D0AE
:104EE000062F18BFBDE8F0812A46334601F080F94D
:104EF000D4E90A2300F0E6FE2A46334601F078F9A9
:104F0000D4E9082300F0DEFE2A46334601F070F9AA
:104F1000D4E9062300F0D6FE2A46334601F068F9AC
:104F2000D4E9042300F0CEFE2A46334601F060F9AE
:104F3000D4E9022300F0C6FE2A46334601F058F9B0
:104F4000D4E90023BDE8F04100F0BCBE00221346C6
:104F50001046014900F072BF0000F03F00F0B2BE01
:104F6000002213461046114600F068BF40F201329D
:104F700000204FF0E04101F092BE0000024A002004
:104F8000110701F08CBE000001FDFFFF70B5094D57
:104F9000FF231A4605F5807606E000BF10F8014BA6
:104FA00054402A5D5A40335D491E89B2F6D242EA26
:104FB000032070BDF2810008044900220B685A6288
:104FC00009684A6A8242FCD37047000070050020DD
:104FD00070B514461D460E46002814BF012100215D
:104FE000314321F00041C1F17F6101F1E041C90F7E
:104FF00016D1002C14BF01210021294321F00041CA
:10500000C1F17F6101F1E041C90F09D11449B1EB50
:10501000460F08BF00281CD0690008BF002C18D01C
:10502000314601F0DDF9024640F2FF7030EA1150DE
:105030000DD0F017B0EBE17F09D0084665F31E00F4
:1050400084460B462046614601F0AEFA0246104601
:1050500070BD0120FBF78BF9BDE87040FFF780BF02
:105060000000E0FF1CB5FCF729FAFFF76DFCFEF726
:10507000F7FB42484049002401604149C0E901145E
:105080004FF48041C0E9034144618461C46104621A
:10509000FBF7CEFF08B172B6FEE7FEF75FFC3A48B9
:1050A000384901604FF4E131C0E901140C21C460BA
:1050B000C0E904418461C461FDF75AF908B172B6D0
:1050C000FEE7FEF781FCFEF7B3FC2C485430FCF7FA
:1050D000BDFDFFF73DFAFFF7C3F901242020CDE91C
:1050E00000043C23294A04212220FFF7C1F926218C
:1050F0001920FFF725FA0122254926A0FFF72CFBEE
:1051000034210820FFF71CFA0122214924A0FFF7CF
:1051100023FBFFF735FB26480068264DA863642073
:10512000FBF702FD24480068E8636420FBF7FCFC01
:10513000224800682249E8640968A966642190FB56
:10514000F1F001F017FD05F180063062FBF768FB16
:10515000A86B08B12C647461E86B00B1B461FFF70F
:105160007FF901210020FDF7BBFE2C63FEF7ACFCAC
:10517000FEF7B8FCFCE70000005400401C050020CE
:10518000801A06000038014048060020F28300081B
:1051900000000020466F726D756C6174696E670067
:1051A0004120477265656E657220576F726C6400AE
:1051B00010F001081800002010E8000810F801089D
:1051C00012E000082DE9F04D1D460C4698B0174638
:1051D00021F0004123F00043002814BF4FF0010CE0
:1051E0004FF0000C0CEB440CFE4A0CEB02064FEAAD
:1051F000620C66452BD33E0018BF012606EB450620
:105200001644F94A964222D3F84A53EA070C02D0D0
:10521000944205D148B918B000201146BDE8F08D80
:10522000002808BF4FF0000C01D04FF0010C0CEB30
:10523000440212F5001F0AD8002F14BF4FF0010CD2
:105240004FF0000C0CEB450212F5001F07D918B007
:105250003A462B462146BDE8F04DFFF77FBE0022BF
:10526000DFF88CA3002CB8BF534526DADFF884C3DF
:105270006345A8BF022220DADFF870C39C451CDC1E
:10528000DFF874C30CEB235CBCF1140F08DDCCF128
:10529000340627FA06FC0CFA06F6BE420DD108E0E9
:1052A0005FB9CCF1140623FA06FC0CFA06F69E420E
:1052B00003D10CF00102C2F1020251EA000C19D133
:1052C000002D17DA002C18BF022A01D0012A07D0BE
:1052D0000220FBF74CF818B0BDE8F04DFFF736BEE2
:1052E0000220FBF744F8FFF731FE18B081F00041CF
:1052F000BDE8F08DB7F1000C6CD1534525D104F118
:10530000804212F5801201BF00280020B74918B072
:1053100008BFBDE8F08DB548884207DC002DA1BF6D
:105320006046294618B0BDE8F08D07E0281E05DA72
:1053300080F0004118B06046BDE8F08DAF49794477
:10534000D1E9000118B0BDE8F08DDFF8A0C26345D7
:1053500025D1002D1FDA19B1514512D1D8B909E074
:10536000002840F0EC82A24A214618B062F31E01E8
:10537000BDE8F08D0020214618B060F31E01BDE8A5
:10538000F08D08DA18B02346BDE8F04D0246002043
:10539000614600F053BD18B02146BDE8F08D51457F
:1053A00018DAB5F1804F0DD0A5F1005CBCF1FF5CBF
:1053B00010D1B4F1000C0DDB18B06146BDE8F04D22
:1053C00000F0F6BB234618B00246BDE8F04D194682
:1053D00000F00EBF060024F0004C3BD1D9B151457E
:1053E00033D1002C06DD002DA1BF0020514618B09E
:1053F000BDE8F08D002C01DD002D1BDB002C13DA45
:10540000002D11DB012A4FF0000014BF78497C49C0
:1054100018B0BDE8F08D022A18BF002C0AD0012A6E
:1054200008D1002C06DA0AE0002CB8BF002D11DAF2
:10543000012A04D0002018B00146BDE8F08D18B054
:1054400000204FF00041BDE8F08DA1F14050B0F1D7
:105450007F601AD0012000EBE47050EA020421D0F2
:10546000624C521E4FF0000B104304BF4FF0000B74
:10547000644C654883427CDD644A654893421FDD85
:10548000884217DB002D25DB37E0002C00DA4AB11B
:10549000022A0CBF01204FF0FF3018B0BDE8F04DDC
:1054A00000F053BE0120FAF762FF18B0BDE8F04DDE
:1054B000FFF756BD4D4A8A4202DC002D0ADC1CE093
:1054C000814202DA002D18DA04E0484B994220DDCF
:1054D000002D12DD0220FAF74AFFFFF747FD0546CF
:1054E0000E46002253465846214600F081FE18B071
:1054F00066F31E012846BDE8F08D0220FAF737FF5B
:10550000FFF73CFD0A46214618B062F31E01BDE8D4
:10551000F08D00223046614601F038F980460E4693
:105520006FF0010201F0BBFB4FF05532394B01F037
:105530003BF84246334600F05BFE0022364B01F05A
:1055400033F882464246334604911046194600F02D
:105550004FFE5246049B00F04BFE8A4600904FF0EF
:10556000C0422E4B4046314600F042FE2C4A2B4BA7
:1055700000E027E0CDE906015146009800F038FE32
:1055800082460191274A284B4046314600F030FEC2
:105590005246019B01F0FAF882460B4602460591FD
:1055A000DDE9060100F08EFBDDE9062300268846D2
:1055B000304601F0EBF85246059B00F0F5FF02463D
:1055C00000F07EB90020B1F5801F07DA35223046A1
:1055D000614601F064FB06466FF0340000EB215099
:1055E00024E00000FFFF1F00FFFF0F000000F03F5E
:1055F0000000F07F0000404301FCFFFF5632000036
:105600000000F0FF0000F0BF0000E0410000F043A8
:10561000FFFFEF3F5555D53F0000E03F4715F73FEF
:10562000FE822B6544DF5DF80BAE543EA0F2FF30E6
:105630000190C1F3130040F07F6141F040510291AD
:10564000FE498842D8BF002004DDFD498142C8BF21
:10565000012001DD0D9008E000200D900198401C14
:1056600001900298A0F5801002900299F5487844C4
:105670000B910D9900EBC100D0E900230F93304648
:105680000A920B9901F082F8CDE90601DDE90A21C1
:1056900030460F9B00F016FB02460B460020EA49FD
:1056A00000F0CCFB059102460B460090DDE90601B7
:1056B00000F09EFD1490E5488A464FF000087844BB
:1056C0000299006812904FF0005040EA61010D9875
:1056D0000F9B01EB804000F5002109910A9A129876
:1056E00001F054F832460B9B00F05EFF42465346F1
:1056F00000F07EFD0646029140465146099B129AF3
:1057000000F076FDDDE9062300F04EFF3246029BF5
:1057100001F03CF8059B009A00F06AFD0091149A94
:10572000049053461046194600F062FD06460246B4
:10573000C7480B46029106217844FFF7B2FBCDE93A
:105740000510029B32461046194600F051FDDDE976
:10575000053200F04DFD0591064653464046194678
:10576000149A00F0AFFA009B049A00F041FD324613
:10577000059B00F0A7FACDE90510424653461046B6
:10578000194600F035FD0022B24B02910A9000F05C
:1057900099FADDE9053200F095FA0E464246AD4B26
:1057A000404600F0F3FF029B0A9A00F0EFFFDDE9AC
:1057B000053200F0F9FE424602910A903346104647
:1057C000514600F015FDCDE906015346149A0299A1
:1057D0000A9800F00DFD8A46029033464246009931
:1057E000049800F005FD5346029A00F06BFA8246D9
:1057F0000B4602460591DDE9060100F063FADDE99A
:10580000062300208846064600F0C0FF5246059B4E
:1058100000F0CAFE824609914FF060428E4B30463E
:10582000414600F0E5FC049006918C4A8A4B5046B4
:10583000099900F0DDFC82460291894A894B304685
:10584000414600F0D5FC5246029B00F03BFA864BE5
:105850007B440D9A03EBC203D3E9002300F032FA34
:105860000E900791019800F070FC0591DDE9061398
:1058700082460E9A049800F025FA7C4A7A440D9BE1
:1058800002EBC303D3E900230093029200F01AFA5B
:105890005246059B00F016FA0026884652463046CE
:1058A000059B00F073FF009B029A00F06FFF069BC0
:1058B000049A00F06BFF079B0E9A00F075FE0246FB
:1058C00000200B4602903846294600F091FC8246A3
:1058D00001912B4638461946029A00F057FF32468E
:1058E000434600F085FC5246019B00F0EBF9074669
:1058F0008A46324643462946029800F079FC05461E
:105900000E463A46534600F0DDF9594A8846914220
:1059100021DBA8EB020353EA000210D12A463346EA
:1059200000F034FFCDE90401524A534B384651464A
:1059300000F0C8F9DDE9042300F000FE21D20220C6
:10594000FAF715FDFFF712FB0A46214618B062F37D
:105950001E01BDE8F08D494B28F000429A4210D359
:10596000474A08EB020353EA00027FF4C6AD2A4619
:10597000334600F00BFF3A46534600F0DFFD7FF65A
:10598000BCAD0022019228F000403E493E4A01EBA6
:105990002051824223DA481C4FF4801121FA00F092
:1059A00040443A4AC0F30A517A44394BA1F2FF31DC
:1059B000CB4020EA0303C0F3130040F48010C1F190
:1059C0001401C84012680190B8F1000FBCBF4042FA
:1059D00001902846314600F0D9FE05460E462A467B
:1059E00033463846514600F06DF94FF00008424604
:1059F000284B4046059100F0FBFBCDE90601264A05
:105A0000264B4046059900F0F3FB009102902A4690
:105A100033464046059900F0B9FE3A46534600F039
:105A2000C3FD1F4A1F4B00F0E3FB009B029A00F0EE
:105A300049F90746884602460B4635E08E98030032
:105A40007AB60B009E2E00000000F03FD62E00001C
:105A5000042E00000000084009C7EE3FFD033ADCB9
:105A6000F5015B14E02F3EBEDC2C0000A02C0000F2
:105A700000009040FE822B654715973C00CC90407B
:105A800000346F3F01FCFFFF0000E03FEC2B000003
:105A9000FFFF0F00432EE63F396CA80C615C20BE6F
:105AA000EF39FAFE422EE63FDDE9060100F00AF981
:105AB000DDE9062305460E4600F068FE3A464346F9
:105AC00000F072FD0F462A463346009010461946F4
:105AD00000F08EFB824602462E4888460B46052182
